{
  "transactions": [
    {
      "hash": "0x5654c1640d1a221c89180b53586c18e278e3bd7e01438e0fc98de9b14ed89190",
      "transactionType": "CALL",
      "contractName": "LinkToken",
      "contractAddress": "0x779877A7B0D9E8603169DdbD7836e478b4624789",
      "function": "transferAndCall(address,uint256,bytes)",
      "arguments": [
        "0x8103B0A8A00be2DDC778e6e7eaa21791Cd364625",
        "3000000000000000000",
        "0x0000000000000000000000000000000000000000000000000000000000002843"
      ],
      "transaction": {
        "type": "0x02",
        "from": "0x8ba1e1e68cfaa08376f768ac65668662074a1300",
        "to": "0x779877a7b0d9e8603169ddbd7836e478b4624789",
        "gas": "0x1b43f",
        "value": "0x0",
        "data": "0x4000aea00000000000000000000000008103b0a8a00be2ddc778e6e7eaa21791cd36462500000000000000000000000000000000000000000000000029a2241af62c0000000000000000000000000000000000000000000000000000000000000000006000000000000000000000000000000000000000000000000000000000000000200000000000000000000000000000000000000000000000000000000000002843",
        "nonce": "0x9",
        "accessList": []
      },
      "additionalContracts": [],
      "isFixedGasLimit": false
    }
  ],
  "receipts": [],
  "libraries": [],
  "pending": [
    "0x5654c1640d1a221c89180b53586c18e278e3bd7e01438e0fc98de9b14ed89190"
  ],
  "returns": {},
  "timestamp": 1710745323,
  "chain": 11155111,
  "multi": false,
  "commit": "17551a6"
}