{
  "transactions": [
    {
      "hash": "0x5654c1640d1a221c89180b53586c18e278e3bd7e01438e0fc98de9b14ed89190",
      "transactionType": "CALL",
      "contractName": "LinkToken",
      "contractAddress": "0x779877A7B0D9E8603169DdbD7836e478b4624789",
      "function": "transferAndCall(address,uint256,bytes)",
      "arguments": [
        "0x8103B0A8A00be2DDC778e6e7eaa21791Cd364625",
        "3000000000000000000",
        "0x0000000000000000000000000000000000000000000000000000000000002843"
      ],
      "transaction": {
        "type": "0x02",
        "from": "0x8ba1e1e68cfaa08376f768ac65668662074a1300",
        "to": "0x779877a7b0d9e8603169ddbd7836e478b4624789",
        "gas": "0x1b43f",
        "value": "0x0",
        "data": "0x4000aea00000000000000000000000008103b0a8a00be2ddc778e6e7eaa21791cd36462500000000000000000000000000000000000000000000000029a2241af62c0000000000000000000000000000000000000000000000000000000000000000006000000000000000000000000000000000000000000000000000000000000000200000000000000000000000000000000000000000000000000000000000002843",
        "nonce": "0x9",
        "accessList": []
      },
      "additionalContracts": [],
      "isFixedGasLimit": false
    }
  ],
  "receipts": [
    {
      "transactionHash": "0x5654c1640d1a221c89180b53586c18e278e3bd7e01438e0fc98de9b14ed89190",
      "transactionIndex": "0x26",
      "blockHash": "0xe00d9be6a41b515c645904efa6e5ed5322592ec3909d585a20ab3ea951c22636",
      "blockNumber": "0x541272",
      "from": "0x8bA1E1e68cfaA08376F768aC65668662074a1300",
      "to": "0x779877A7B0D9E8603169DdbD7836e478b4624789",
      "cumulativeGasUsed": "0x274993",
      "gasUsed": "0x12a4a",
      "contractAddress": null,
      "logs": [
        {
          "address": "0x779877A7B0D9E8603169DdbD7836e478b4624789",
          "topics": [
            "0xddf252ad1be2c89b69c2b068fc378daa952ba7f163c4a11628f55a4df523b3ef",
            "0x0000000000000000000000008ba1e1e68cfaa08376f768ac65668662074a1300",
            "0x0000000000000000000000008103b0a8a00be2ddc778e6e7eaa21791cd364625"
          ],
          "data": "0x00000000000000000000000000000000000000000000000029a2241af62c0000",
          "blockHash": "0xe00d9be6a41b515c645904efa6e5ed5322592ec3909d585a20ab3ea951c22636",
          "blockNumber": "0x541272",
          "transactionHash": "0x5654c1640d1a221c89180b53586c18e278e3bd7e01438e0fc98de9b14ed89190",
          "transactionIndex": "0x26",
          "logIndex": "0x25",
          "removed": false
        },
        {
          "address": "0x779877A7B0D9E8603169DdbD7836e478b4624789",
          "topics": [
            "0xe19260aff97b920c7df27010903aeb9c8d2be5d310a2c67824cf3f15396e4c16",
            "0x0000000000000000000000008ba1e1e68cfaa08376f768ac65668662074a1300",
            "0x0000000000000000000000008103b0a8a00be2ddc778e6e7eaa21791cd364625"
          ],
          "data": "0x00000000000000000000000000000000000000000000000029a2241af62c0000000000000000000000000000000000000000000000000000000000000000004000000000000000000000000000000000000000000000000000000000000000200000000000000000000000000000000000000000000000000000000000002843",
          "blockHash": "0xe00d9be6a41b515c645904efa6e5ed5322592ec3909d585a20ab3ea951c22636",
          "blockNumber": "0x541272",
          "transactionHash": "0x5654c1640d1a221c89180b53586c18e278e3bd7e01438e0fc98de9b14ed89190",
          "transactionIndex": "0x26",
          "logIndex": "0x26",
          "removed": false
        },
        {
          "address": "0x8103B0A8A00be2DDC778e6e7eaa21791Cd364625",
          "topics": [
            "0xd39ec07f4e209f627a4c427971473820dc129761ba28de8906bd56f57101d4f8",
            "0x0000000000000000000000000000000000000000000000000000000000002843"
          ],
          "data": "0x000000000000000000000000000000000000000000000000000000000000000000000000000000000000000000000000000000000000000029a2241af62c0000",
          "blockHash": "0xe00d9be6a41b515c645904efa6e5ed5322592ec3909d585a20ab3ea951c22636",
          "blockNumber": "0x541272",
          "transactionHash": "0x5654c1640d1a221c89180b53586c18e278e3bd7e01438e0fc98de9b14ed89190",
          "transactionIndex": "0x26",
          "logIndex": "0x27",
          "removed": false
        }
      ],
      "status": "0x1",
      "logsBloom": "0x0000001400000000000000000001000000000000002000020000000002000000000000000000800000000000000000000000000000000000000000200000000000000000000000000000000800000000000000000000000000002000000000080000000000000000000000000000000000000000400000000000001000000000000000000c000020000000000000800010000020000000000000000000000000000000000000000000000000000000000000000000000000000400000000000000000002000000000000000000000000000000000000000100000000000010000000000000000010000000000000000000000000000000000000000000000000",
      "type": "0x2",
      "effectiveGasPrice": "0xcbc48edfd"
    }
  ],
  "libraries": [],
  "pending": [],
  "returns": {},
  "timestamp": 1710745336,
  "chain": 11155111,
  "multi": false,
  "commit": "17551a6"
}